:020000040800F2
:10000000600600201D0200082502000827020008E3
:10001000290200082B0200082D0200080000000041
:100020000000000000000000000000002F02000897
:100030003102000800000000330200083502000809
:1000400037020008370200083702000837020008AC
:10005000370200083702000837020008370200089C
:10006000370200083702000837020008370200088C
:10007000370200083702000837020008370200087C
:10008000370200083702000837020008370200086C
:10009000370200083702000837020008370200085C
:1000A000370200083702000837020008370200084C
:1000B00037020008000000000000000037020008BE
:1000C00037020008000000000000000037020008AE
:1000D000000000003702000837020008000000009E
:1000E000370200083702000800000000000000008E
:1000F0000000000000000000000000000000000000
:1001000000000000000000000000000037020008AE
:10011000000000000000000037020008370200085D
:1001200037020008370200083702000837020008CB
:10013000370200080000000000000000000000007E
:1001400037020008370200083702000837020008AB
:10015000370200083702000837020008370200089B
:1001600037020008370200083702000800000000CC
:1001700037020008370200080000000000000000FD
:1001800037020008370200083702000800F002F8C2
:1001900000F032F80AA090E8000C82448344AAF1EF
:1001A0000107DA4501D100F027F8AFF2090EBAE8ED
:1001B0000F0013F0010F18BFFB1A43F0010318479B
:1001C000840500009405000000230024002500267B
:1001D000103A28BF78C1FBD8520728BF30C148BFAA
:1001E0000B6070471FB500F0A0FA0FBC00F014F8C8
:1001F0000FB41FBD10B510BD00F033F81146FFF766
:10020000F1FF00F037FA00F051F803B4FFF7F2FF06
:1002100003BC00F059F8000000F06DB809488047B1
:1002200009480047FEE7FEE7FEE7FEE7FEE7FEE7D8
:10023000FEE7FEE7FEE7FEE704480549054A064BF0
:1002400070470000D10400088D0100086000002004
:1002500060060020600200206002002070477047A6
:100260007047754600F02CF8AE46050069465346C7
:1002700020F00700854618B020B5FFF7DDFFBDE888
:1002800020404FF000064FF000074FF000084FF0FD
:10029000000BAC46ACE8C009ACE8C009ACE8C0094A
:1002A000ACE8C00921F007018D46704710B504463F
:1002B000AFF300802046BDE81040FFF7A6BF000066
:1002C000004870470000002001491820ABBEFEE73F
:1002D000260002000246C91C21F00301D2E90003F6
:1002E0001B1A8B4201D2002070470144C91D21F026
:1002F0000701116070472DE9F34F83B000274FF4D9
:100300008074BA4603A821468DF80070FFF7E2FF1B
:100310005FEA000801D100F086F82146404600F06F
:1003200073F8060009D04FF0010B4546C14616F898
:10033000014B8FB15C2C16D01CE008F1080041463F
:10034000C8F800000020C8F80400D8F80040207069
:10035000012005B000F055B8222C01D0272C0FD178
:100360002746BA462CE03078222807D05C2805D0F2
:10037000272803D0BC4203D1002721E0761C044685
:100380004CB12FB9202C06D0A4F10900042802D9C1
:1003900005F8014BCBE74D4502D1BAF1000F0FD064
:1003A00052464946002005F8010B6846AFF300802D
:1003B0009DF8000070B14D464FF0000A0BF1010BA3
:1003C000002CB4D14FEA8B0103A8FFF783FF040090
:1003D00002D004E0A946EFE7002000F024F8002056
:1003E0004246C4F8008005E012F8011B11B9401C18
:1003F00044F82020AA42F7D3002144F820102146D7
:10040000A7E730BCBDE8C08F1CB50446CDE90001AC
:1004100069461520ABBE08B100201CBD20461CBD9E
:1004200070477047704710B500F00AF8BDE81040FB
:10043000AFF30080002801D0FFF746BF70470000EF
:1004400010B5012805D0002103A000F021F80120FB
:1004500010BD09A1F8E7000053494752544D454DDE
:100460003A204F7574206F662068656170206D6555
:100470006D6F7279000000003A2048656170206D50
:10048000656D6F727920636F727275707465640048
:1004900070B505460C460A2000E06D1C00F011F80E
:1004A00035B128780028F8D102E0641C00F009F882
:1004B00014B120780028F8D1BDE870400A20AFF3CD
:1004C000008008B569468DF800000320ABBE08BD6A
:1004D0004EF68850CEF20000016841F470010160D0
:1004E00041F20000C4F20200016841F00101016024
:1004F00041F20801C4F2020100220A6001684FF6CD
:10050000FF73CEF6F6231940016041F20C01C4F2EC
:1005100002014FF480530B60016821F480210160D7
:1005200041F21800C4F2020002604EF60850CEF20A
:1005300000004FF0006101607047000082B0024689
:100540008DF8070000919DF9070000280AD4FFE705
:10055000009800019DF907104EF20042CEF2000211
:1005600088540BE0009800019DF8071001F00F017E
:100570004EF61452CEF200028854FFE702B07047E4
:1005800083B0029000200190FFE701980299884211
:1005900013D2FFE700200090FFE7009840F66B4180
:1005A000884205DCFFE7FFE7009801300090F4E7A0
:1005B000FFE7019801300190E7E703B070470000C2
:1005C00082B00190009100984000032101FA00F0F0
:1005D000019A136823EA000010600098400001228D
:1005E00002FA00F0019BD3F800C040EA0C0018604A
:1005F000009802FA00F0019BD3F804C02CEA000036
:1006000058600098400001FA00F0019BD3F808C040
:100610002CEA000098600098400002FA00F0019A6D
:100620009368184390600098400001FA00F0019927
:10063000CA6822EA0000C86002B0704782B0019028
:10064000009140F21440C4F60000016821F0080156
:10065000016002B07047000082B00190009140F24A
:100660001440C4F60000016841F00801016002B0C6
:100670007047000080B586B00020059000F02CF88F
:1006800041F24C00C4F20200016841F00301016034
:1006900002200490FFF774FF40F20040C4F600000F
:1006A0000321FFF78DFF0498FFF76AFFFFE740F291
:1006B0000040C4F60000032103900291FFF7CCFF35
:1006C00032200190FFF75CFF03980299FFF7B6FF15
:1006D0000198FFF755FFEAE780B584B00F2003903B
:1006E00040F60011C0F23D010291002101914EF24D
:1006F0001402CEF2000240F69F7313604EF218020D
:10070000CEF2000211604EF21001CEF2000107227B
:100710000A604FF0FF31009008460099FFF70EFF86
:100720000120FFF72DFF04B080BDF1EE100A4FF657
:10073000FF71C0F2C03120EA010040F04070E1EEEC
:10074000100A7047540700080000002060060000EF
:04075000C8010008D4
:040000050800021DD0
:00000001FF
